:020000040000FA
:1000000002EF00F00001030E656F010E655DD8B4CC
:1000100014EF00F0020E655DD8B421EF00F0030E7E
:10002000655DD8B42EEF00F00001FF0E606F010E89
:100030006025626F080E606F020E6021636F3DEFF6
:1000400000F00001FF0E606F010E605D626F080E30
:10005000606F020E6059636F3DEF00F00001010E0A
:10006000606F020E616F6007020E6127602F34EF30
:0E00700000F06151646F3DEF00F03DEF00F0D5
:02007E00000080
:00000001FF
