:0410000069EF08F09C
:081006000D60418220EF0BF0A8
:101018004180D8CF28F0E8CF29F0E0CF2AF0F2A419
:1010280018EF08F01AEF08F061EF08F0D10ED76E4C
:101038001F0ED66E030E166424EF08F026EF08F094
:101048002AEF08F0010E166E4DEF08F0162A4DEF44
:1010580008F021C089FF8D848D928D908B9260EF6E
:1010680008F08D9420C089FF8D828D908B9260EF5F
:1010780008F08D948D921FC089FF8D808B9260EF50
:1010880008F08D948D928D901EC089FF8B8260EF41
:1010980008F01650010AD8B42DEF08F0030AD8B4A6
:1010A80035EF08F0010AD8B43DEF08F0070AD8B4C4
:1010B80045EF08F060EF08F0F2942AC0E0FF29C07D
:1010C800E8FF28C0D8FF4190100062EF0DF00050F3
:1010D800756C7361646F7220524230206163746969
:1010E8007661646F200A0024C7E574F1F3A4F7F46D
:1010F800B740D34248F6F79373697374656D6120FE
:101108006365727261646F206E6F207365207075FD
:101118006564652063617267617220636F646967E3
:101128006F200A006361726761206C6F7320636FC0
:101138006469676F7320706F726661200A00636F5D
:101148006469676F73206361726761646F7320629B
:1011580069656E200A0056657269666963616E6426
:101168006F2073697374656D61200A007365207060
:10117800726F6365646520612063657272617220B5
:101188000A0063657272616E646F202073697374FC
:10119800656D61200A0061627269656E646F202066
:1011A80073697374656D61200A0056616C6F7220F3
:1011B800696E636F72726563746F200A00426965B5
:1011C8006E76656E69646F73200A00446573617298
:1011D8006D61646F200A004572726F722E200A00DA
:1011E80041726D61646F200A004F6B200A006F6BBB
:1011F800200A000013BE0AEF09F0135009E1060E99
:10120800125CD8A00AEF09F00CEF09F0A5EF09F07D
:10121800000E136E000E126E0250032404240524DF
:1012280001241D6E1D500618D8A41DEF09F01FEFEC
:1012380009F04AEF09F014041510D8A426EF09F0B4
:1012480028EF09F04AEF09F00104D8A42EEF09F0BD
:1012580030EF09F04AEF09F002C02BF001503CECE6
:101268000DF003C02BF001283CEC0DF004C02BF06E
:101278000150020F3CEC0DF0F10E2B6E110E2C6E8E
:10128800DEEC0CF0104A112AA5EF09F01D500618E3
:10129800D8A451EF09F053EF09F07FEF09F01404D7
:1012A8001510D8A45AEF09F05CEF09F07FEF09F0A8
:1012B800020E0118D8A463EF09F065EF09F07FEF7B
:1012C80009F002C02BF00150020F3CEC0DF003C0F6
:1012D8002BF00150030F3CEC0DF004C02BF0015033
:1012E800040F3CEC0DF0F60E2B6E110E2C6EDEEC9E
:1012F8000CF046EF09F0DF0E2B6E110E2C6EDEECB3
:101308000CF014041510D8A48CEF09F08EEF09F036
:1013180094EF09F0B20E2B6E110E2C6EDEEC0CF071
:1013280014501510D8A49BEF09F09DEF09F0A5EF14
:1013380009F0000E2B6E110E2C6EDEEC0CF0A5EFF2
:1013480009F01200000E2F6E000E316E000E326E84
:10135800000E336E000E346E06C02BF007C02CF062
:1013680008C02DF009C02EF0D8902E322D322C3224
:101378002B322BC031F02CC032F02DC033F02EC0F0
:1013880034F0000E356E31A0CCEF09F0CEEF09F045
:10139800CFEF09F02F2A31C02BF032C02CF033C028
:1013A8002DF034C02EF0D8902E322D322C322B3224
:1013B8002BC031F02CC032F02DC033F02EC034F0E9
:1013C800352A0B0E3564EBEF09F0EDEF09F0C7EFA6
:1013D80009F02F50010B2F6E2F50D8A4F6EF09F00B
:1013E800F8EF09F003EF0AF01750D8A4FEEF09F060
:1013F80000EF0AF003EF0AF0000E43EF0AF0000EC8
:10140800306E000E356E31A00CEF0AF00EEF0AF0C8
:101418000FEF0AF0302A31C02BF032C02CF033C065
:101428002DF034C02EF0D8902E322D322C322B32A3
:101438002BC031F02CC032F02DC033F02EC034F068
:10144800352A0B0E35642BEF0AF02DEF0AF007EF63
:101458000AF03050010B306E3004D8A436EF0AF091
:1014680038EF0AF042EF0AF01850D8A43EEF0AF01D
:1014780040EF0AF042EF0AF000EF0AF0010E120006
:101488001A0E1B18D8A44BEF0AF04DEF0AF057EFCD
:101498000AF0A6EC09F00009D8A455EF0AF057EFB6
:1014A8000AF05AEF0AF0000EC6EF0AF0000E1B6EA3
:1014B800000E0D6E000E0C6E000E0B6E000E0A6E06
:1014C800000E1A6E000E196E000E186E000E176EC2
:1014D80006C039F007C03AF008C03BF009C03CF03C
:1014E800D8903C323B323A32393239503D6E3E6AFE
:1014F8003F6A406A3850D96EDA6A3DC0DFFF06C0DD
:1015080039F007C03AF008C03BF009C03CF00A0EB9
:1015180093EF0AF0D8903C323B323A323932E82E17
:101528008EEF0AF039503D6E3E6A3F6A406A375086
:10153800D96EDA6A3DC0DFFF06C039F007C03AF05D
:1015480008C03BF009C03CF0120EB0EF0AF0D8908A
:101558003C323B323A323932E82EABEF0AF039509E
:101568003D6E3E6A3F6A406A3650D96EDA6A3DC0BF
:10157800DFFF000E066E000E076E000E086E000EEE
:10158800096E010E1200250E366E240E376E230EDC
:10159800386E44EC0AF00009D8B4D5EF0AF0D7EF5A
:1015A8000AF01FEF0BF0010E6FEC0DF02518D8A410
:1015B800E0EF0AF0E2EF0AF0F8EF0AF0020E6FEC43
:1015C8000DF02418D8A4EBEF0AF0EDEF0AF0F8EFCD
:1015D8000AF0030E6FEC0DF02318D8B4F6EF0AF0FA
:1015E800F8EF0AF019EF0BF0040E6FEC0DF0251868
:1015F800D8A401EF0BF003EF0BF01FEF0BF0050E73
:101608006FEC0DF02418D8A40CEF0BF00EEF0BF0D4
:101618001FEF0BF0060E6FEC0DF02318D8A417EF90
:101628000BF019EF0BF01FEF0BF014C02DF015C0E5
:101638002EF0BAEC0CF01200D9CF26F0DACF27F052
:10164800F0A029EF0BF02BEF0BF02EEF0BF0B2EC24
:101658000BF0F090F0A233EF0BF035EF0BF038EF12
:101668000BF071EC0BF0F0929EAA3DEF0BF03FEF00
:101678000BF06BEF0BF0AECF22F0ABA246EF0BF006
:1016880048EF0BF04AEF0BF0AB98AB8822C0ADFFE8
:101698009E989EA852EF0BF054EF0BF04DEF0BF015
:1016A80013BE62EF0BF0135007E1060E125CD8B0C0
:1016B80060EF0BF062EF0BF06AEF0BF01250010FC6
:1016C800D96EDA6A22C0DFFF124A132A9E9A27C00F
:1016D800DAFF26C0D9FF41921100140E1C6E1B0EB2
:1016E8001B6079EF0BF07BEF0BF0B1EF0BF01B50A9
:1016F800D8A481EF0BF083EF0BF085EF0BF0000E11
:10170800186E190E1B18D8A48CEF0BF08EEF0BF087
:1017180090EF0BF0000E176E1B2A1A2AD890063489
:10172800066E0734076E0834086E0934096EFE0E1B
:101738000614066EFF0E0714076EFF0E0814086ED7
:10174800FF0E0914096ED8900A340A6E0B340B6E1A
:10175800010E0A100A6E0B500B6E1200140E1C6E4E
:101768001B0E1B60BAEF0BF0BCEF0BF0EFEF0BF0AA
:101778001B50D8A4C2EF0BF0C4EF0BF0C6EF0BF070
:10178800010E186E190E1B18D8A4CDEF0BF0CFEF71
:101798000BF0D1EF0BF0010E176E1B2A192AD89007
:1017A8000634066E0734076E0834086E0934096E6D
:1017B800010E0610066E0750076E0850086E095095
:1017C800096ED8900C340C6E0D340D6E010E0C1091
:1017D8000C6E0D500D6E1200700ED36E100ED26E80
:1017E800800E9B6E000E926EE10E936EBC0E946E90
:1017F8000F0E956E000E966E000E0F015B6F000EB9
:101808005C6F000E5D6F000E5E6F000E5F6F000E66
:10181800F26ED08EF288F19CF28EF28CF28AF194FC
:101828009D8A9F8AD59CD59AD596070ED512D58EB6
:10183800D10ED76E1F0ED66E4D0EAF6E000EB06E67
:10184800AC9CAC8AAC98AB9CAB88400EB86EAB8EA7
:101858001200010E6FEC0DF0FF0AD8A436EF0CF061
:1018680038EF0CF055EF0CF0040E6FEC0DF0FF0A9A
:10187800D8A441EF0CF043EF0CF055EF0CF0000E3C
:10188800156E010E146E000E0F6E010E0E6E00EC3A
:101898000DF0D30E2B6E110E2C6EDEEC0CF065EFF6
:1018A8000CF0000E156E000E146E000E0F6E000E7A
:1018B8000E6E1EEC0DF0E80E2B6E110E2C6EDEEC8B
:1018C8000CF012002C0E2B6E110E2C6EDEEC0CF0B0
:1018D80070EF0CF0FEEC08F011BE7CEF0CF011502C
:1018E80009E1020E105CD8A07CEF0CF07EEF0CF042
:1018F8006EEF0CF0460E2B6E110E2C6EDEEC0CF01B
:10190800740E2B6E110E2C6EDEEC0CF01EEC0DF02E
:10191800000E156E000E146E000E0F6E000E0E6E89
:101928001200F0EC0BF052EC0DF0C50E2B6E110E00
:101938002C6EDEEC0CF05E0E2B6E110E2C6EDEECB7
:101948000CF02DEC0CF00E040F10D8A4AEEF0CF038
:10195800B0EF0CF0B2EF0CF066EC0CF0FEEC08F017
:10196800C7EC0AF0B2EF0CF069EF08F02D502E101A
:10197800D8A4C1EF0CF0C3EF0CF0D1EF0CF0000EBF
:10198800156E010E146E00EC0DF09E0E2B6E110EEE
:101998002C6EDEEC0CF0DDEF0CF0000E156E000E78
:1019A800146E1EEC0DF08A0E2B6E110E2C6EDEECF2
:1019B8000CF01200F1EF0CF02BC0F6FF2CC0F7FF73
:1019C8000800F5CFADFF9E989EA8EDEF0CF0EFEF65
:1019D8000CF0E8EF0CF02B4A2C2A2BC0F6FF2CC099
:1019E800F7FF0800F5500009D8A4FDEF0CF0FFEF51
:1019F8000CF0E0EF0CF01200FB0EF66E100EF76E16
:101A08000800F5CF21F0FA0EF66E100EF76E0800FA
:101A1800F5CF20F0FE0EF66E100EF76E0800F5CF2B
:101A28001FF0FD0EF66E100EF76E0800F5CF1EF0D3
:101A380081981200FB0EF66E100EF76E0800F5CFB7
:101A480021F0FA0EF66E100EF76E0800F5CF20F0B2
:101A5800FA0EF66E100EF76E0800F5CF1FF0FF0EA7
:101A6800F66E100EF76E0800F5CF1EF08188120092
:101A78002C6EF29E2CC0A9FF2BC0A8FFA684550E81
:101A8800A76EAA0EA76EA682A6B24DEF0DF04FEF75
:101A98000DF048EF0DF0A694F28E1200000E0F0123
:101AA8005B6F000E5C6F000E5D6F93829384F19AFA
:101AB800F198F086F088F08CF08E120000EE01F0BC
:101AC800250EEE6AE806FDE141904192000EF86E9F
:101AD800000195EF0CF02B6E2BC0A9FFA69EA69CCB
:0A1AE800000EA86EA680A8501200A0
:00000001FF
