:0410000021EF09F0E3
:081006000D60348279EF0BF05C
:101018003480D8CF03F0E8CF04F0E0CF05F0F6CF66
:1010280006F0F7CF07F0F8CF08F0F5CF09F0F2A4F3
:1010380020EF08F022EF08F011EF09F0D10ED76E7B
:101048001F0ED66EDCEC0BF0030E2C642EEF08F0AE
:1010580030EF08F034EF08F0010E2C6EFDEF08F0C9
:101068002C2AFDEF08F08D848D928D908B922D5057
:101078005F0F026E02C0F6FF120EF76E0800F5CF82
:1010880089FF83A04AEF08F04CEF08F04EEF08F014
:10109800070E2D6E83A253EF08F055EF08F057EFB7
:1010A80008F0060E2D6E83A45CEF08F05EEF08F0E2
:1010B80060EF08F0050E2D6E83A665EF08F067EF68
:1010C80008F010EF09F0040E2D6E10EF09F08D9462
:1010D8008D828D908B922D505F0F026E02C0F6FFAD
:1010E800120EF76E0800F5CF89FF83A47EEF08F093
:1010F80080EF08F082EF08F0090E2D6E83A687EFC7
:1011080008F089EF08F08BEF08F0080E2D6E83B217
:1011180090EF08F092EF08F099EF08F083A097EFAE
:1011280008F099EF08F010EF09F00A0E2D6E10EF95
:1011380009F08D948D928D808B922D505F0F026EE9
:1011480002C0F6FF120EF76E0800F5CF89FF83B2D2
:10115800B0EF08F0B2EF08F099EF08F083B0B7EFFE
:1011680008F0B9EF08F099EF08F083B6BEEF08F081
:10117800C0EF08F099EF08F083A4C5EF08F0C7EFB7
:1011880008F010EF09F099EF08F08D948D928D908A
:101198008B822D505F0F026E02C0F6FF120EF76EA3
:1011A8000800F5CF89FF83A0DCEF08F0DEEF08F038
:1011B800E0EF08F0030E2D6E83A2E5EF08F0E7EFED
:1011C80008F0E9EF08F0020E2D6E83A4EEEF08F0A8
:1011D800F0EF08F0F2EF08F0010E2D6E83A6F7EF9E
:1011E80008F0F9EF08F010EF09F0000E2D6E10EF7F
:1011F80009F02C50010AD8B437EF08F0030AD8B424
:101208006BEF08F0010AD8B49DEF08F0070AD8B4CC
:10121800C9EF08F010EF09F0F29409C0F5FF08C013
:10122800F8FF07C0F7FF06C0F6FF05C0E0FF04C0DF
:10123800E8FF03C0D8FF3490100028EF0CF00050EE
:10124800756C7361646F72205242302061637469F7
:101258007661646F200A0024C7E574F1F3A4F7F4FB
:10126800B74050727565626120636F6E2072616D60
:10127800200A0050727565626120454550524F4DF5
:10128800200A0000000E0E6E000E106E000E116E89
:10129800000E126E000E136E24C00AF025C00BF06B
:1012A80026C00CF027C00DF0D8900D320C320B324E
:1012B8000A320AC010F00BC011F00CC012F00DC0B9
:1012C80013F0000E146E10A06CEF09F06EEF09F029
:1012D8006FEF09F00E2A10C00AF011C00BF012C00F
:1012E8000CF013C00DF0D8900D320C320B320A32CC
:1012F8000AC010F00BC011F00CC012F00DC013F0B2
:10130800142A0B0E14648BEF09F08DEF09F067EFC8
:1013180009F00E50010B0E6E0E50D8A496EF09F08E
:1013280098EF09F0A3EF09F02E50D8A49EEF09F02A
:10133800A0EF09F0A3EF09F0000EE3EF09F0000EAB
:101348000F6E000E146E10A0ACEF09F0AEEF09F0AE
:10135800AFEF09F00F2A10C00AF011C00BF012C04D
:101368000CF013C00DF0D8900D320C320B320A324B
:101378000AC010F00BC011F00CC012F00DC013F031
:10138800142A0B0E1464CBEF09F0CDEF09F0A7EF88
:1013980009F00F50010B0F6E0F04D8A4D6EF09F017
:1013A800D8EF09F0E2EF09F02F50D8A4DEEF09F0EA
:1013B800E0EF09F0E2EF09F0A0EF09F0010E1200EA
:1013C8001A0E3218D8A4EBEF09F0EDEF09F0F7EF99
:1013D80009F046EC09F00009D8A4F5EF09F0F7EF99
:1013E80009F0FAEF09F0000E66EF0AF0000E326E0F
:1013F800000E2B6E000E2A6E000E296E000E286E4F
:10140800000E316E000E306E000E2F6E000E2E6E26
:1014180024C018F025C019F026C01AF027C01BF008
:10142800D8901B321A321932183218501C6E1D6AA5
:101438001E6A1F6A1750D96EDA6A1CC0DFFF24C003
:1014480018F025C019F026C01AF027C01BF00A0EA4
:1014580033EF0AF0D8901B321A3219321832E82EBC
:101468002EEF0AF018501C6E1D6A1E6A1F6A16506D
:10147800D96EDA6A1CC0DFFF24C018F025C019F045
:1014880026C01AF027C01BF0120E50EF0AF0D890B1
:101498001B321A3219321832E82E4BEF0AF0185064
:1014A8001C6E1D6A1E6A1F6A1550D96EDA6A1CC046
:1014B800DFFF000E246E000E256E000E266E000E55
:1014C800276E010E1200FCEC0AF018EC0CF0010E6D
:1014D80035EC0CF0236E7B0E0A6E0A50D8A4120E5F
:1014E8000B6E0F0E0C6EB5EC0BF0230E0A6E0B6A2A
:1014F800010E0C6EB5EC0BF0232A23C00AF0010E86
:1015080002EC0CF0000E2D6E200E156E210E166EDC
:10151800220E176EE4EC09F00009D8B496EF0AF031
:1015280098EF0AF088EF0AF0200E0A6E0B6A010E97
:101538000C6EB5EC0BF0210E0A6E0B6A010E0C6EE8
:10154800B5EC0BF0220E0A6E0B6A010E0C6EB5ECB0
:101558000BF0890E0A6E0A50D8A4120E0B6E010EFB
:101568000C6EB5EC0BF088EF0AF021EF09F0140EC1
:10157800336E1B0E3260C3EF0AF0C5EF0AF0FBEFC3
:101588000AF03250D8A4CBEF0AF0CDEF0AF0CFEF33
:101598000AF0000E2F6E190E3218D8A4D6EF0AF0F2
:1015A800D8EF0AF0DAEF0AF0000E2E6E322A312A4E
:1015B800D8902434246E2534256E2634266E27349C
:1015C800276EFE0E2414246EFF0E2514256EFF0EC2
:1015D8002614266EFF0E2714276ED8902834286EFE
:1015E8002934296E010E2810286E2950296E120000
:1015F800700ED36E100ED26E800E9B6E000E926E21
:10160800E10E936EBC0E946E0F0E956E000E966EE4
:10161800000E0F015B6F000E5C6F000E5D6F000E19
:101628005E6F000E5F6F000EF26ED08EF288F19C36
:10163800F28EF28CF28AF1949D8A9F8AD59CD59A73
:10164800D596D550F80B0109D56ED10ED76E1F0E61
:10165800D66E4D0EAF6E000EB06EAC94AC9CAC8ADC
:10166800AC98AB9CAB88400EB86EAB8E1200140ED3
:10167800336E1B0E326043EF0BF045EF0BF078EF43
:101688000BF03250D8A44BEF0BF04DEF0BF04FEFAF
:101698000BF0010E2F6E190E3218D8A456EF0BF06E
:1016A80058EF0BF05AEF0BF0010E2E6E322A302A4B
:1016B800D8902434246E2534256E2634266E27349B
:1016C800276E010E2410246E2550256E2650266E96
:1016D8002750276ED8902A342A6E2B342B6E010E91
:1016E8002A102A6E2B502B6E1200F2A27EEF0BF0FE
:1016F80080EF0BF081EF0BF0F292F0A086EF0BF089
:1017080088EF0BF08BEF0BF03BEC0BF0F090F0A2B6
:1017180090EF0BF092EF0BF095EF0BF0BBEC0AF0AB
:10172800F0929EAA9AEF0BF09CEF0BF0B3EF0BF040
:10173800AECF01F0ABA2A3EF0BF0A5EF0BF0A7EF34
:101748000BF0AB98AB88012A01C0ADFF9E989EA80C
:10175800B0EF0BF0B2EF0BF0ABEF0BF09E9A3492B8
:101768001100D3EF0BF00AC0F6FF0BC0F7FFF86AC1
:10177800070EF76403D00800F55005D0F6CFE9FF4F
:10178800F7CFEAFFEF50AD6E9E989EA8CEEF0BF014
:10179800D0EF0BF0C9EF0BF00C060A4A0B2A0C50DD
:1017A800D8A4D9EF0BF0DBEF0BF0B7EF0BF012007A
:1017B8003350D8B4E2EF0BF0E4EF0BF0E7EF0BF0A7
:1017C800330601EF0CF0000E326E000E2B6E000E89
:1017D8002A6E000E296E000E286E000E316E000E65
:1017E800306E000E246E000E256E000E266E000E62
:1017F800276E000E2F6E000E2E6E12000B6EF29EDC
:101808000BC0A9FF0AC0A8FFA684550EA76EAA0E92
:10181800A76EA682A6B213EF0CF015EF0CF00EEF30
:101828000CF0A694F28E1200000E0F015B6F000EF2
:101838005C6F000E5D6F93829384F19AF198F08645
:10184800F088F08CF08E120000EE24F0100EEE6A94
:10185800E806FDE134903492000EF86E000167EF5F
:101868000AF00A6E0AC0A9FFA69EA69C000EA86EE2
:06187800A680A85012003A
:00000001FF
