:020000040000FA
:0400000048EF02F0D3
:020004000000FA
:0A0006002D3633352D2D373433002D
:1000100000010A500C6E000E0C5C0F01D8B442ECCB
:1000200000F0010E0C5C0F01D8B461EC00F0020E80
:100030000C5C0F01D8B461EC00F0030E0C5C0F01F6
:10004000D8B461EC00F0040E0C5C0F01D8B44FEC96
:1000500000F0050E0C5C0F01D8B442EC00F0060E67
:100060000C5C0F01D8B461EC00F0070E0C5C0F01C2
:10007000D8B461EC00F0080E0C5C0F01D8B461EC50
:1000800000F012002B0E0B5C0F01D8B412002D0EE5
:100090000B5C0F01D8B412007DEF00F012002B0EA4
:1000A0000B5C0F01D8B412002D0E0B5C0F01D8B4FD
:1000B00012002A0E0B5C0F01D8B412007DEF00F085
:1000C0001200300E00010D6E0D500B5C0F01D8B404
:1000D0001200390E0D5C0F01D8B47DEF00F00D2A2F
:1000E00064EF00F00EA079EC00F00B500F01EE6F02
:1000F000120000EE00F00E2A1200808080907DEF4A
:1001000000F08180819081EF00F000EE00F0040E9D
:100110000F01E9260F01EF5000010F6E2B0E0F5C4F
:100120000F01D8B4A2EF00F02D0E0F5C0F01D8B470
:1001300062EF01F02A0E0F5C0F01D8B446EF02F017
:100140007DEF00F0AAEC00F0C9EC00F050EC01F0FB
:1001500081EF00F000EE00F00F01EF50106E050E81
:100160000F01E9260F01EF50116E1050115C0F01C5
:10017000D8B4BEEC00F062EF01F0120000EE00F027
:100180000F01EF50106E00EE25F00F011050EF6ED2
:1001900012000001080E146E030E156E030E166E8B
:1001A000070E176E00EE00F014500F01E9260F0144
:1001B000EFCF12F000EE00F015500F01E9260F010D
:1001C000EFCF13F0F1EC00F000011406150617064E
:1001D000162ED2EF00F01AB044EC01F0A6EF00F0BA
:1001E00012001250132213B80CEF01F0139E139C4F
:1001F000139A1398090E13540F01D8A82DEF01F08C
:100200000F0E13540F01D8A81BEC01F0D8A81EEC58
:1002100001F0D8A82DEF01F0139E139C139A1398A8
:1002200018EC01F01EEC01F02DEF01F016EF01F0DB
:10023000060E132612000A0E135E12000001010EB4
:10024000196F12000001010E195E12000001010E6B
:100250001A6F22EC01F0E4EF00F0139E139C138A56
:10026000138833EF01F000EE25F017500F01E92657
:1002700000011A5013261A6B13500F01EF6F19A0CB
:10028000E4EF00F026EF01F000EE25F0040E0F0180
:10029000E926310E0F01EF260001010E186E120043
:1002A000000118B0030E18A0040E186E185000EECE
:1002B00025F00F01E926300E0F01EF26182E56EF1C
:1002C00001F01200070E246E6AEC01F0DDEC01F083
:1002D00068EF01F000EE00F00F01EF50106E050E18
:1002E0000F01E9260F01EF50116E1050115C0F0144
:1002F000D8B47EEC01F0A2EF00F012000001010E74
:100300001D6E060E1E6E00EE00F000011D500F0166
:10031000E9260F01EF501B6EA2EC01F000EE00F099
:1003200000011E500F01E9260F01EF501C6EA2ECD8
:1003300001F00001010E1D26060E1E26ABEC01F099
:10034000000012001B9E1B9C1B9A1B981C9E1C9C51
:100350001C9A1C98120000011B501C5CD8B483EF3F
:1003600001F01B501C64BDEF01F02B0E105C0F015F
:10037000D8B4CBEF01F0D4EF01F000EE00F00F01A4
:10038000EF50106E00EE25F00F011050EF6E0001DF
:10039000216A66EF01F000EE25F00F012D0EEF6EE1
:1003A0000001212A66EF01F000EE25F00F012B0E6F
:1003B000EF6E0001212A66EF01F0000121B0E3ECAD
:1003C00001F0F9EC01F000EE00F00001080EE92662
:1003D0000F01EF501F6E0FEC02F000EE00F0000175
:1003E000030EE9260F01EF50206E0FEC02F019EC1E
:1003F00002F000EE00F00001030EE9260F01EF50BD
:100400001F6E0FEC02F000EE00F00001080EE9266E
:100410000F01EF50206E0FEC02F019EC02F000011A
:10042000209E209C209A20981F9E1F9C1F9A1F98F8
:100430001200000122B031EC02F020501F5C236E4C
:100440000F01D8B828EC02F035EC02F03BEC02F0DA
:1004500000010A0E1F2620501F5C236E010E22266B
:10046000120000011F06220612000001239E239C99
:10047000238A2388120000EE25F024500F01E9267C
:1004800023500F01EF6F240666EF01F046EF02F0F4
:100490000001896A0F015B6B0F01000E926E0F0164
:1004A0005C6B0F01010E936E0F0181B054EC02F0F2
:1004B0005AEF02F0000EF76E060EF66E00010A6BA0
:1004C0000001090E096F0900F5500B6F08EC00F0F0
:1004D00072EC00F000010A2B0001092F63EF02F01B
:0404E00085EF00F0B4
:00000001FF
