:041000001DEF10F0E0
:081006000D604B82CEEF12F0E9
:101018004B80D8CF23F0E8CF24F0E0CF25F0F3CFF2
:1010280026F0F4CF27F0F6CF28F0F7CF29F0F8CF45
:101038002AF0F5CF2BF0F2A424EF08F026EF08F001
:1010480009EF10F0D10ED76E1F0ED66E030E466450
:1010580030EF08F032EF08F036EF08F0010E466E78
:10106800A5EF09F0462AA5EF09F042503F0F216E7F
:1010780021C0F6FF200EF76E0800F5CF89FF8D849A
:101088008D928D908B9283CF21F00F0E2116D8B4BC
:1010980050EF08F052EF08F0B8EF09F083A657EFC9
:1010A80008F059EF08F063EF08F0000E3B6E030EEE
:1010B8003A6E010E4424446E000E4520456E83A40A
:1010C80068EF08F06AEF08F074EF08F0000E3B6E66
:1010D800040E3A6E010E4424446E000E4520456EFF
:1010E80083A279EF08F07BEF08F085EF08F0000E97
:1010F8003B6E050E3A6E010E4424446E000E4520E8
:10110800456E83A08AEF08F08CEF08F0B8EF09F07D
:10111800040E476E020E486E000E356E010E346ED8
:10112800070E226E170E216E6A0EE82EFED7212EAC
:10113800FCD7222EFAD700D0B8EF09F08D94405092
:101148003F0F216E21C0F6FF200EF76E0800F5CF85
:1011580089FF8D828D908B9283CF21F00F0E2116FF
:10116800D8B4B9EF08F0BBEF08F0B8EF09F083A6E0
:10117800C0EF08F0C2EF08F0C8EF08F0000E3B6EB1
:10118800020E3A6E444A452A83A4CDEF08F0CFEF09
:1011980008F0D5EF08F0000E3B6E010E3A6E444A97
:1011A800452A83A2DAEF08F0DCEF08F0E2EF08F056
:1011B800000E3B6E000E3A6E444A452A83A0E7EFC4
:1011C80008F0E9EF08F0B8EF09F0080E476E020ED4
:1011D800486E000E356E010E346E94EF08F08D9453
:1011E8008D923E503F0F216E21C0F6FF200EF76E04
:1011F8000800F5CF89FF8D808B9283CF21F00F0EE9
:101208002116D8B40AEF09F00CEF09F0B8EF09F08D
:1012180083A611EF09F013EF09F019EF09F0000E9A
:101228003B6E090E3A6E444A452A83A01EEF09F028
:1012380020EF09F03FEF09F0492A49B026EF09F0FD
:1012480028EF09F039EF09F0000E3D6E0A0E3C6EEA
:101258000D0E226E2D0E216ED80EE82EFED7212EF1
:10126800FCD7222EFAD73FEF09F0000E3D6E0D0E87
:101278003C6E2CEF09F083A444EF09F046EF09F027
:1012880048EF09F0010E486E83A24DEF09F04FEFC9
:1012980009F0B8EF09F0344A352AB8EF09F08D940F
:1012A8008D928D903C503F0F216E21C0F6FF200E8D
:1012B800F76E0800F5CF89FF8B8283A666EF09F0E9
:1012C80068EF09F072EF09F0000E3B6E060E3A6EF9
:1012D800010E4424446E000E4520456E83A477EF2A
:1012E80009F079EF09F083EF09F0000E3B6E070E65
:1012F8003A6E010E4424446E000E4520456E83A2CA
:1013080088EF09F08AEF09F094EF09F0000E3B6EC0
:10131800080E3A6E010E4424446E000E4520456EB8
:1013280083A099EF09F09BEF09F0B8EF09F0010EDF
:10133800476E020E486E000E356E010E346E94EF45
:1013480008F04650010AD8B439EF08F0030AD8B4B7
:10135800A2EF08F0010AD8B4F3EF08F0070AD8B4EE
:1013680053EF09F0B8EF09F044504510D8A4BFEF87
:1013780009F0C1EF09F0F3EF09F04A50D8A4C7EF1C
:1013880009F0C9EF09F0F3EF09F0000E436E0A0EF9
:10139800426E000E416E0A0E406E000E3F6E0A0E3F
:1013A8003E6E49B0DAEF09F0DCEF09F0E2EF09F040
:1013B800000E3D6E0A0E3C6EE6EF09F0000E3D6E23
:1013C8000D0E3C6E010E4A6E0D0E226E2D0E216E14
:1013D800D80EE82EFED7212EFCD7222EFAD74404A9
:1013E8004510D8A4FAEF09F0FCEF09F02EEF0AF047
:1013F8004A04D8A402EF0AF004EF0AF02EEF0AF02C
:101408003AC042F03BC043F0000E416E0A0E406EF7
:10141800000E3F6E0A0E3E6E49B015EF0AF017EF48
:101428000AF01DEF0AF0000E3D6E0A0E3C6E21EF29
:101438000AF0000E3D6E0D0E3C6E000E4A6E0D0E4B
:10144800226E2D0E216ED80EE82EFED7212EFCD747
:10145800222EFAD7020E44184510D8A436EF0AF007
:1014680038EF0AF06AEF0AF04A50D8A43EEF0AF0C3
:1014780040EF0AF06AEF0AF042C040F043C041F082
:101488003AC042F03BC043F0000E3F6E0A0E3E6E7B
:1014980049B051EF0AF053EF0AF059EF0AF0000E85
:1014A8003D6E0A0E3C6E5DEF0AF0000E3D6E0D0EAD
:1014B8003C6E010E4A6E0D0E226E2D0E216ED80E58
:1014C800E82EFED7212EFCD7222EFAD7030E441879
:1014D8004510D8A472EF0AF074EF0AF099EF0AF0F9
:1014E8004A04D8A47AEF0AF07CEF0AF099EF0AF0E0
:1014F800000E416E0C0E406E000E436E0C0E426ED6
:10150800000E3F6E0B0E3E6E000E3D6E0A0E3C6ED8
:10151800000E4A6E0D0E226E2D0E216ED80EE82E8C
:10152800FED7212EFCD7222EFAD74804D8A49FEF45
:101538000AF0A1EF0AF0C9EF0AF0000E486E000E9B
:10154800496E000E456E000E446E000E4A6E000E87
:10155800476E000E356E000E346E000E436E0A0E96
:10156800426E000E416E0A0E406E000E3F6E0A0E6D
:101578003E6E000E3D6E0A0E3C6E9C0E216ED70E1E
:10158800E82EFED7212EFCD70000020E4818D8A45A
:10159800D0EF0AF0D2EF0AF054EF0BF04704D8A4CA
:1015A800D8EF0AF0DAEF0AF054EF0BF034043510F4
:1015B800D8A4E1EF0AF0E3EF0AF054EF0BF0090EBC
:1015C80042184310D8A4EBEF0AF0EDEF0AF0EFEF62
:1015D8000AF042684368090E40184110D8A4F7EF92
:1015E8000AF0F9EF0AF0FBEF0AF04068416849B0E9
:1015F80000EF0BF002EF0BF018EF0BF040C001F01A
:1016080041C002F0000E046E0A0E036E9CEC12F04C
:1016180042500126435002220B0E0124386E000E60
:101628000220396E32EF0BF040C001F041C002F0E9
:10163800000E046E0A0E036E9CEC12F04250012656
:10164800435002220B0E0126000E0222011E021E2A
:10165800014A022A01C038F002C039F0000E486E73
:10166800000E496E000E456E000E446E000E4A6E66
:10167800000E436E0A0E426E000E416E0A0E406E58
:10168800000E3F6E0A0E3E6E000E3D6E0A0E3C6E58
:101698009C0E216ED70EE82EFED7212EFCD7000017
:1016A8004704D8A45AEF0BF05CEF0BF077EF0CF07F
:1016B800020E34183510D8A464EF0BF066EF0BF067
:1016C80077EF0CF0090E42184310D8A46EEF0BF018
:1016D80070EF0BF072EF0BF042684368090E401888
:1016E8004110D8A47AEF0BF07CEF0BF07EEF0BF0F3
:1016F8004068416849B083EF0BF085EF0BF09BEF32
:101708000BF040C001F041C002F0000E046E0A0E5A
:10171800036E9CEC12F042500126435002220B0E3D
:101728000124366E000E0220376EB5EF0BF040C074
:1017380001F041C002F0000E046E0A0E036E9CEC2C
:1017480012F042500126435002220B0E0126000ED1
:101758000222011E021E014A022A01C036F002C0FE
:1017680037F0000E486E000E496E000E456E010EF1
:10177800446E000E4A6E344A352A36503824326E8A
:1017880037503920336E32C001F033C002F0000EFA
:1017980002BEFF0E036E046E010E2CEC10F001C0A9
:1017A8000FF002C010F003C011F004C012F082EC78
:1017B80012F00FC017F010C018F011C019F012C0C5
:1017C8001AF006EC11F017C030F018C031F030C034
:1017D80009F031C00AF0000E0C6E0A0E0B6EEBEC2D
:1017E80011F0FF0E0924426EFF0E0A20436E010E0F
:1017F8004224216E000E4320226E21502210D8A4CC
:1018080008EF0CF00AEF0CF00EEF0CF0000E436E30
:10181800090E426E000E046E0A0E036E30C001F00F
:1018280031C002F089EC11F001C009F002C00AF0E1
:10183800000E0C6E0A0E0B6EEBEC11F0FF0E092475
:10184800406EFF0E0A20416E010E4024216E000EEC
:101858004120226E21502210D8A435EF0CF037EF2A
:101868000CF03BEF0CF0000E416E090E406E30C0DC
:1018780001F031C002F0000E046E640E036E89ECB4
:1018880011F0FF0E01243E6EFF0E02203F6E010E86
:101898003E24216E000E3F20226E21502210D8A433
:1018A80058EF0CF05AEF0CF05EEF0CF0000E3F6EA4
:1018B8000A0E3E6E33BE63EF0CF065EF0CF06BEF73
:1018C8000CF0000E3D6E0A0E3C6E6FEF0CF0000E31
:1018D8003D6E0D0E3C6E9C0E216ED70EE82EFED787
:1018E800212EFCD70000020E4818D8A47EEF0CF079
:1018F80080EF0CF003EF0DF0040E4718D8A487EF23
:101908000CF089EF0CF003EF0DF034043510D8A477
:1019180090EF0CF092EF0CF003EF0DF0090E421867
:101928004310D8A49AEF0CF09CEF0CF09EEF0CF04B
:1019380042684368090E40184110D8A4A6EF0CF07D
:10194800A8EF0CF0AAEF0CF04068416849B0AFEF7F
:101958000CF0B1EF0CF0C7EF0CF040C001F041C043
:1019680002F0000E046E0A0E036E9CEC12F0425058
:101978000126435002220B0E0124386E000E02206D
:10198800396EE1EF0CF040C001F041C002F0000EEA
:10199800046E0A0E036E9CEC12F04250012643506E
:1019A80002220B0E0126000E0222011E021E014A0F
:1019B800022A01C038F002C039F0000E486E000E4D
:1019C800496E000E456E000E446E000E4A6E000E03
:1019D800436E0A0E426E000E416E0A0E406E000EF5
:1019E8003F6E0A0E3E6E000E3D6E0A0E3C6E9C0E59
:1019F800216ED70EE82EFED7212EFCD70000040E4C
:101A08004718D8A40AEF0DF00CEF0DF027EF0EF0F1
:101A1800020E34183510D8A414EF0DF016EF0DF09F
:101A280027EF0EF0090E42184310D8A41EEF0DF050
:101A380020EF0DF022EF0DF042684368090E4018C0
:101A48004110D8A42AEF0DF02CEF0DF02EEF0DF079
:101A58004068416849B033EF0DF035EF0DF04BEFBA
:101A68000DF040C001F041C002F0000E046E0A0EF5
:101A7800036E9CEC12F042500126435002220B0EDA
:101A88000124366E000E0220376E65EF0DF040C05F
:101A980001F041C002F0000E046E0A0E036E9CECC9
:101AA80012F042500126435002220B0E0126000E6E
:101AB8000222011E021E014A022A01C036F002C09B
:101AC80037F0000E486E000E496E000E456E010E8E
:101AD800446E000E4A6E344A352A3650385C326EEF
:101AE80037503958336E32C001F033C002F0000E5F
:101AF80002BEFF0E036E046E010E2CEC10F001C046
:101B08000FF002C010F003C011F004C012F082EC14
:101B180012F00FC017F010C018F011C019F012C061
:101B28001AF006EC11F017C030F018C031F030C0D0
:101B380009F031C00AF0000E0C6E0A0E0B6EEBECC9
:101B480011F0FF0E0924426EFF0E0A20436E010EAB
:101B58004224216E000E4320226E21502210D8A468
:101B6800B8EF0DF0BAEF0DF0BEEF0DF0000E436EBA
:101B7800090E426E000E046E0A0E036E30C001F0AC
:101B880031C002F089EC11F001C009F002C00AF07E
:101B9800000E0C6E0A0E0B6EEBEC11F0FF0E092412
:101BA800406EFF0E0A20416E010E4024216E000E89
:101BB8004120226E21502210D8A4E5EF0DF0E7EF66
:101BC8000DF0EBEF0DF0000E416E0A0E406E30C0C6
:101BD80001F031C002F0000E046E640E036E89EC51
:101BE80011F0FF0E01243E6EFF0E02203F6E010E23
:101BF8003E24216E000E3F20226E21502210D8A4D0
:101C080008EF0EF00AEF0EF00EEF0EF0000E3F6E2A
:101C18000A0E3E6E33BE13EF0EF015EF0EF01BEFFB
:101C28000EF0000E3D6E0A0E3C6E1FEF0EF0000E19
:101C38003D6E0D0E3C6E9C0E216ED70EE82EFED723
:101C4800212EFCD70000020E4818D8A42EEF0EF063
:101C580030EF0EF0B3EF0EF0080E4718D8A437EFA8
:101C68000EF039EF0EF0B3EF0EF034043510D8A4AF
:101C780040EF0EF042EF0EF0B3EF0EF0090E4218EF
:101C88004310D8A44AEF0EF04CEF0EF04EEF0EF0D2
:101C980042684368090E40184110D8A456EF0EF068
:101CA80058EF0EF05AEF0EF04068416849B05FEF08
:101CB8000EF061EF0EF077EF0EF040C001F041C07A
:101CC80002F0000E046E0A0E036E9CEC12F04250F5
:101CD8000126435002220B0E0124386E000E02200A
:101CE800396E91EF0EF040C001F041C002F0000ED5
:101CF800046E0A0E036E9CEC12F04250012643500B
:101D080002220B0E0126000E0222011E021E014AAB
:101D1800022A01C038F002C039F0000E486E000EE9
:101D2800496E000E456E000E446E000E4A6E000E9F
:101D3800436E0A0E426E000E416E0A0E406E000E91
:101D48003F6E0A0E3E6E000E3D6E0A0E3C6E9C0EF5
:101D5800216ED70EE82EFED7212EFCD70000080EE4
:101D68004718D8A4BAEF0EF0BCEF0EF008EF10F049
:101D7800020E34183510D8A4C4EF0EF0C6EF0EF0DA
:101D880008EF10F0090E42184310D8A4CEEF0EF059
:101D9800D0EF0EF0D2EF0EF042684368090E4018FB
:101DA8004110D8A4DAEF0EF0DCEF0EF0DEEF0EF003
:101DB8004068416849B0E3EF0EF0E5EF0EF0FBEF45
:101DC8000EF040C001F041C002F0000E046E0A0E91
:101DD800036E9CEC12F042500126435002220B0E77
:101DE8000124366E000E0220376E15EF0FF040C04A
:101DF80001F041C002F0000E046E0A0E036E9CEC66
:101E080012F042500126435002220B0E0126000E0A
:101E18000222011E021E014A022A01C036F002C037
:101E280037F0000E486E000E496E000E456E010E2A
:101E3800446E000E4A6E344A352A38C001F039C063
:101E480002F036C003F037C004F09CEC12F001C079
:101E580032F002C033F032C001F033C002F0000E9D
:101E680002BEFF0E036E046E010E2CEC10F001C0D2
:101E78000FF002C010F003C011F004C012F082ECA1
:101E880012F00FC017F010C018F011C019F012C0EE
:101E98001AF006EC11F017C030F018C031F030C05D
:101EA80009F031C00AF0000E0C6E0A0E0B6EEBEC56
:101EB80011F0FF0E0924426EFF0E0A20436E010E38
:101EC8004224216E000E4320226E21502210D8A4F5
:101ED80070EF0FF072EF0FF076EF0FF0000E436E19
:101EE800090E426E000E0C6E640E0B6E30C009F0C7
:101EF80031C00AF0EBEC11F009C001F00AC002F0A1
:101F0800000E046E0A0E036E89EC11F0FF0E012418
:101F1800406EFF0E0220416E010E4024216E000E1D
:101F28004120226E21502210D8A49DEF0FF09FEF80
:101F38000FF0A3EF0FF0000E416E090E406E030E76
:101F48000C6EE80E0B6E30C009F031C00AF0EBECF5
:101F580011F009C001F00AC002F0000E046E640E10
:101F6800036E89EC11F0FF0E01243E6EFF0E022075
:101F78003F6E010E3E24216E000E3F20226E21503E
:101F88002210D8A4CAEF0FF0CCEF0FF0D0EF0FF06B
:101F9800000E3F6E090E3E6E30C001F031C002F0F7
:101FA800030E046EE80E036E89EC11F0FF0E012497
:101FB8003C6EFF0E02203D6E010E3C24216E000E89
:101FC8003D20226E21502210D8A4EDEF0FF0EFEF44
:101FD8000FF0F3EF0FF0000E3D6E090E3C6E33BEAE
:101FE800FAEF0FF0F8EF0FF000EF10F00E0E3C24B0
:101FF8003C6E000E3D203D6E9C0E216ED70EE82EE5
:10200800FED7212EFCD70000F2942BC0F5FF2AC082
:10201800F8FF29C0F7FF28C0F6FF27C0F4FF26C045
:10202800F3FF25C0E0FF24C0E8FF23C0D8FF4B9092
:102038001000C1EF12F00024C7E574F1F3A4F7F41F
:10204800B740D342482CCFED7CF8FBACFFFCBF0077
:10205800096E0950D8B433EF10F035EF10F057EF90
:1020680010F004BE3CEF10F03AEF10F057EF10F00C
:1020780001C005F002C006F003C007F004C008F074
:10208800051E061E071E081E052A000E0622072228
:10209800082205C00BF006C00CF007C00DF008C000
:1020A8000EF05FEF10F001C00BF002C00CF003C09F
:1020B8000DF004C00EF00150021003100410D8A453
:1020C80068EF10F06AEF10F074EF10F0000E016E78
:1020D800000E026E000E036E000E046E05EF11F086
:1020E800960E0A6E7EEF10F00A2AD8900E320D3244
:1020F8000C320B32000E0B14056E000E0C14066E1B
:10210800000E0D14076EFE0E0E14086E0550061014
:1021180007100810D8A493EF10F095EF10F078EF9F
:1021280010F0A3EF10F00A2A010E0B26000E0C2265
:102138000D220E22D8900E320D320C320B32000EC8
:102148000B14056E000E0C14066E000E0D14076EAF
:10215800FF0E0E14086E0550061007100810D8A4BC
:10216800B8EF10F0BAEF10F097EF10F0C2EF10F0E0
:102178000A06D8900B360C360D360E360DBEC7EF54
:1021880010F0C9EF10F0D1EF10F0020E0A60CFEF97
:1021980010F0D1EF10F0BCEF10F00AB0D6EF10F04D
:1021A800D8EF10F0D9EF10F00D9ED8900A320AC07F
:1021B80005F0066A076A086A05C008F0076A066A31
:1021C800056A05500B1206500C1207500D120850E4
:1021D8000E120950D8B4F3EF10F0F5EF10F0FDEF40
:1021E80010F004BEFCEF10F0FAEF10F0FDEF10F065
:1021F8000E8E0BC001F00CC002F00DC003F00EC033
:1022080004F0120019341A34206E2050D8A40FEFAD
:1022180011F011EF11F01BEF11F0000E176E000E08
:10222800186E000E196E000E1A6E88EF11F017C0A6
:102238001BF018C01CF019C01DF01AC01EF0200EAB
:102248002BEF11F0D8901E321D321C321B32E82EB3
:1022580026EF11F01B501F6E198EFF0E1716FF0E7A
:102268001816FF0E1916000E1A16960E205E20BEBE
:1022780042EF11F040EF11F058EF11F02050800AB2
:10228800970FD8B04AEF11F04CEF11F04EEF11F064
:1022980011EF11F0D8901A32193218321732203E45
:1022A8004EEF11F070EF11F01F0E20645EEF11F089
:1022B80060EF11F068EF11F011EF11F0D8901736B8
:1022C800183619361A3620062050D8A46EEF11F0A9
:1022D80070EF11F062EF11F01F50D8B476EF11F0E3
:1022E80078EF11F080EF11F01A1E191E181E176CE6
:1022F800000E182219221A2217C017F018C018F059
:1023080019C019F01AC01AF01200000E066E04BEA9
:1023180092EF11F090EF11F098EF11F0036C041E9A
:10232800D8B0042A010E066E02BE9FEF11F09DEF91
:1023380011F0A5EF11F0016C021ED8B0022A010EAF
:10234800061A000E086E000E076E03500410D8B46B
:10235800B0EF11F0B2EF11F0DAEF11F0010E056EE7
:10236800BAEF11F0D89003360436052A04AEBFEF51
:1023780011F0C1EF11F0B6EF11F0D890073608361A
:102388000350015C04500258D8A0CDEF11F0CFEFF4
:1023980011F0D4EF11F00350015E0450025A078087
:1023A800D89004320332052EC1EF11F00650D8B48C
:1023B800E0EF11F0E2EF11F0E6EF11F0076C081E04
:1023C800D8B0082A07C001F008C002F01200000EB9
:1023D8000E6E0ABEF4EF11F0F2EF11F0FAEF11F001
:1023E800096C0A1ED8B00A2A010E0E6E0CBE01EF47
:1023F80012F0FFEF11F005EF12F00B6C0C1ED8B0C5
:102408000C2A0B500C10D8B40CEF12F00EEF12F08F
:1024180032EF12F0010E0D6E16EF12F0D8900B3657
:102428000C360D2A0CAE1BEF12F01DEF12F012EF56
:1024380012F00B50095C0C500A58D8A026EF12F085
:1024480028EF12F02CEF12F00B50095E0C500A5ACC
:10245800D8900C320B320D2E1DEF12F00E50D8B45E
:1024680038EF12F03AEF12F03EEF12F0096C0A1E44
:10247800D8B00A2A09C009F00AC00AF01200700E82
:10248800D36E100ED26E800E9B6E000E926EE10E11
:10249800936EBC0E946E0F0E956E000E966E000E27
:1024A8000F015B6F000E5C6F000E5D6F000E5E6FBC
:1024B800000E5F6F000EF26ED08EF288F19CF28EE5
:1024C800F28CF28AF1949D9A9F8AD59CD59AD596DA
:1024D800D550F80B0109D56ED10ED76E1F0ED66EEA
:1024E8004D0EAF6E000EB06EAC94AC9CAC8AAC983E
:1024F800AB9CAB88400EB86EAB8E12002CC013F0AC
:102508002DC014F02EC015F02FC016F00FC013F018
:1025180010C014F011C015F012C016F0169E13C0AA
:102528000FF014C010F015C011F016C012F0120010
:1025380001500302F3CF05F0F4CF06F00150040276
:10254800F350062602500302F350062605C001F098
:1025580006C002F0120043EC12F0000E496E000EA5
:10256800456E000E446E000E4A6E000E356E000E6B
:10257800346EBDEF12F01DEF10F000EE2CF01F0EC0
:10258800EE6AE806FDE14B904B92000EF86E0001F2
:0A259800AFEF12F0F2924B92110027
:00000001FF
