:020000040000FA
:0400000042EF00F0DB
:020004000000FA
:0A0006000206050406060405FFFFCC
:10001000FFFF02A010EC00F001500F01EE6F120084
:1000200000EE07F0022A120000EE07F00F01EF5079
:100030000001036F0F01E92AEF500001046F090E60
:10004000056F064E22EF00F00450036536EC00F019
:100050000F01EF500001036F0F01E92AEF5000017B
:10006000046F054E14EF00F024EF00F003C0EFFF23
:100070000F01E90604C0EFFFE92A12003EEF00F08D
:0400800040EF00F05D
:0C008400000EF76E060EF66E0A0E006FFE
:100090000900F550016F09EC00F00001002F48EF56
:0A00A00000F0090E066E14EF00F0E8
:00000001FF
